{
  "_format": "hh-sol-artifact-1",
  "contractName": "Escrow",
  "sourceName": "contracts/Escrow.sol",
  "abi": [
    {
      "inputs": [
        {
          "internalType": "address",
          "name": "_receiver",
          "type": "address"
        },
        {
          "internalType": "string",
          "name": "_alias",
          "type": "string"
        },
        {
          "internalType": "string",
          "name": "_description",
          "type": "string"
        }
      ],
      "stateMutability": "payable",
      "type": "constructor"
    },
    {
      "inputs": [],
      "name": "aliasName",
      "outputs": [
        {
          "internalType": "string",
          "name": "",
          "type": "string"
        }
      ],
      "stateMutability": "view",
      "type": "function"
    },
    {
      "inputs": [],
      "name": "amount",
      "outputs": [
        {
          "internalType": "uint256",
          "name": "",
          "type": "uint256"
        }
      ],
      "stateMutability": "view",
      "type": "function"
    },
    {
      "inputs": [],
      "name": "approveReceiver",
      "outputs": [],
      "stateMutability": "nonpayable",
      "type": "function"
    },
    {
      "inputs": [],
      "name": "approveSender",
      "outputs": [],
      "stateMutability": "nonpayable",
      "type": "function"
    },
    {
      "inputs": [],
      "name": "description",
      "outputs": [
        {
          "internalType": "string",
          "name": "",
          "type": "string"
        }
      ],
      "stateMutability": "view",
      "type": "function"
    },
    {
      "inputs": [],
      "name": "receiver",
      "outputs": [
        {
          "internalType": "address",
          "name": "",
          "type": "address"
        }
      ],
      "stateMutability": "view",
      "type": "function"
    },
    {
      "inputs": [],
      "name": "receiverApproved",
      "outputs": [
        {
          "internalType": "bool",
          "name": "",
          "type": "bool"
        }
      ],
      "stateMutability": "view",
      "type": "function"
    },
    {
      "inputs": [],
      "name": "refund",
      "outputs": [],
      "stateMutability": "nonpayable",
      "type": "function"
    },
    {
      "inputs": [],
      "name": "sender",
      "outputs": [
        {
          "internalType": "address",
          "name": "",
          "type": "address"
        }
      ],
      "stateMutability": "view",
      "type": "function"
    },
    {
      "inputs": [],
      "name": "senderApproved",
      "outputs": [
        {
          "internalType": "bool",
          "name": "",
          "type": "bool"
        }
      ],
      "stateMutability": "view",
      "type": "function"
    }
  ],
  "bytecode": "0x60806040526000600360006101000a81548160ff0219169083151502179055506000600360016101000a81548160ff02191690831515021790555060405162000eb938038062000eb983398181016040528101906200005f91906200025b565b336000806101000a81548173ffffffffffffffffffffffffffffffffffffffff021916908373ffffffffffffffffffffffffffffffffffffffff16021790555082600160006101000a81548173ffffffffffffffffffffffffffffffffffffffff021916908373ffffffffffffffffffffffffffffffffffffffff160217905550346002819055508160049080519060200190620000ff92919062000122565b5080600590805190602001906200011892919062000122565b5050505062000462565b8280546200013090620003b4565b90600052602060002090601f016020900481019282620001545760008555620001a0565b82601f106200016f57805160ff1916838001178555620001a0565b82800160010185558215620001a0579182015b828111156200019f57825182559160200191906001019062000182565b5b509050620001af9190620001b3565b5090565b5b80821115620001ce576000816000905550600101620001b4565b5090565b6000620001e9620001e38462000317565b620002e3565b9050828152602081018484840111156200020257600080fd5b6200020f8482856200037e565b509392505050565b600081519050620002288162000448565b92915050565b600082601f8301126200024057600080fd5b815162000252848260208601620001d2565b91505092915050565b6000806000606084860312156200027157600080fd5b6000620002818682870162000217565b935050602084015167ffffffffffffffff8111156200029f57600080fd5b620002ad868287016200022e565b925050604084015167ffffffffffffffff811115620002cb57600080fd5b620002d9868287016200022e565b9150509250925092565b6000604051905081810181811067ffffffffffffffff821117156200030d576200030c62000419565b5b8060405250919050565b600067ffffffffffffffff82111562000335576200033462000419565b5b601f19601f8301169050602081019050919050565b600062000357826200035e565b9050919050565b600073ffffffffffffffffffffffffffffffffffffffff82169050919050565b60005b838110156200039e57808201518184015260208101905062000381565b83811115620003ae576000848401525b50505050565b60006002820490506001821680620003cd57607f821691505b60208210811415620003e457620003e3620003ea565b5b50919050565b7f4e487b7100000000000000000000000000000000000000000000000000000000600052602260045260246000fd5b7f4e487b7100000000000000000000000000000000000000000000000000000000600052604160045260246000fd5b62000453816200034a565b81146200045f57600080fd5b50565b610a4780620004726000396000f3fe608060405234801561001057600080fd5b506004361061009e5760003560e01c8063aa8c217c11610066578063aa8c217c14610125578063bdb47f3914610143578063ef9382681461014d578063f0f959f71461016b578063f7260d3e146101755761009e565b80631895afc0146100a357806331cb793b146100c1578063590e1ae3146100df57806367e404ce146100e95780637284e41614610107575b600080fd5b6100ab610193565b6040516100b89190610830565b60405180910390f35b6100c96101a6565b6040516100d69190610830565b60405180910390f35b6100e76101b9565b005b6100f161031a565b6040516100fe9190610815565b60405180910390f35b61010f61033e565b60405161011c919061084b565b60405180910390f35b61012d6103cc565b60405161013a91906108ed565b60405180910390f35b61014b6103d2565b005b610155610485565b604051610162919061084b565b60405180910390f35b610173610513565b005b61017d6105c8565b60405161018a9190610815565b60405180910390f35b600360009054906101000a900460ff1681565b600360019054906101000a900460ff1681565b60008054906101000a900473ffffffffffffffffffffffffffffffffffffffff1673ffffffffffffffffffffffffffffffffffffffff163373ffffffffffffffffffffffffffffffffffffffff1614610247576040517f08c379a000000000000000000000000000000000000000000000000000000000815260040161023e906108cd565b60405180910390fd5b600360009054906101000a900460ff1615806102705750600360019054906101000a900460ff16155b6102af576040517f08c379a00000000000000000000000000000000000000000000000000000000081526004016102a69061088d565b60405180910390fd5b60008054906101000a900473ffffffffffffffffffffffffffffffffffffffff1673ffffffffffffffffffffffffffffffffffffffff166108fc6002549081150290604051600060405180830381858888f19350505050158015610317573d6000803e3d6000fd5b50565b60008054906101000a900473ffffffffffffffffffffffffffffffffffffffff1681565b6005805461034b9061099f565b80601f01602080910402602001604051908101604052809291908181526020018280546103779061099f565b80156103c45780601f10610399576101008083540402835291602001916103c4565b820191906000526020600020905b8154815290600101906020018083116103a757829003601f168201915b505050505081565b60025481565b60008054906101000a900473ffffffffffffffffffffffffffffffffffffffff1673ffffffffffffffffffffffffffffffffffffffff163373ffffffffffffffffffffffffffffffffffffffff1614610460576040517f08c379a0000000000000000000000000000000000000000000000000000000008152600401610457906108ad565b60405180910390fd5b6001600360006101000a81548160ff0219169083151502179055506104836105ee565b565b600480546104929061099f565b80601f01602080910402602001604051908101604052809291908181526020018280546104be9061099f565b801561050b5780601f106104e05761010080835404028352916020019161050b565b820191906000526020600020905b8154815290600101906020018083116104ee57829003601f168201915b505050505081565b600160009054906101000a900473ffffffffffffffffffffffffffffffffffffffff1673ffffffffffffffffffffffffffffffffffffffff163373ffffffffffffffffffffffffffffffffffffffff16146105a3576040517f08c379a000000000000000000000000000000000000000000000000000000000815260040161059a9061086d565b60405180910390fd5b6001600360016101000a81548160ff0219169083151502179055506105c66105ee565b565b600160009054906101000a900473ffffffffffffffffffffffffffffffffffffffff1681565b600360009054906101000a900460ff1680156106165750600360019054906101000a900460ff165b1561068757600160009054906101000a900473ffffffffffffffffffffffffffffffffffffffff1673ffffffffffffffffffffffffffffffffffffffff166108fc6002549081150290604051600060405180830381858888f19350505050158015610685573d6000803e3d6000fd5b505b565b61069281610924565b82525050565b6106a181610936565b82525050565b60006106b282610908565b6106bc8185610913565b93506106cc81856020860161096c565b6106d581610a00565b840191505092915050565b60006106ed601a83610913565b91507f4f6e6c792072656365697665722063616e20617070726f76652e0000000000006000830152602082019050919050565b600061072d601d83610913565b91507f426f7468206d75737420617070726f766520666f7220726566756e642e0000006000830152602082019050919050565b600061076d601883610913565b91507f4f6e6c792073656e6465722063616e20617070726f76652e00000000000000006000830152602082019050919050565b60006107ad602183610913565b91507f4f6e6c792073656e6465722063616e2072657175657374206120726566756e6460008301527f2e000000000000000000000000000000000000000000000000000000000000006020830152604082019050919050565b61080f81610962565b82525050565b600060208201905061082a6000830184610689565b92915050565b60006020820190506108456000830184610698565b92915050565b6000602082019050818103600083015261086581846106a7565b905092915050565b60006020820190508181036000830152610886816106e0565b9050919050565b600060208201905081810360008301526108a681610720565b9050919050565b600060208201905081810360008301526108c681610760565b9050919050565b600060208201905081810360008301526108e6816107a0565b9050919050565b60006020820190506109026000830184610806565b92915050565b600081519050919050565b600082825260208201905092915050565b600061092f82610942565b9050919050565b60008115159050919050565b600073ffffffffffffffffffffffffffffffffffffffff82169050919050565b6000819050919050565b60005b8381101561098a57808201518184015260208101905061096f565b83811115610999576000848401525b50505050565b600060028204905060018216806109b757607f821691505b602082108114156109cb576109ca6109d1565b5b50919050565b7f4e487b7100000000000000000000000000000000000000000000000000000000600052602260045260246000fd5b6000601f19601f830116905091905056fea26469706673582212208a399e4b416b4b2395fe4414e21f2e9067297ad6977d810e6df15528f4c35ace64736f6c63430008000033",
  "linkReferences": {},
  "deployedLinkReferences": {}
}